:020000040800F2
:100000000028002011140008A1130008A7130008FD
:10001000AD130008B3130008B91300080000000076
:10002000000000000000000000000000BF130008F6
:10003000CB13000800000000D7130008E3130008EA
:1000400059140008591400085914000859140008DC
:1000500059140008591400085914000859140008CC
:1000600059140008591400085914000859140008BC
:1000700059140008591400085914000859140008AC
:10008000591400085914000859140008591400089C
:10009000591400085914000859140008591400088C
:1000A000591400085914000859140008591400087C
:1000B000F11300085914000800000000591400084A
:1000C0005914000800000000000000005914000846
:1000D0000000000059140008591400080000000036
:1000E00059140008591400085914000800000000B1
:1000F0000000000000000000000000000000000000
:0C01000000000000000000005FF808F1A3
:10010C0010B5054C237833B9044B13B10448AFF345
:10011C0000800123237010BD6C0000200000000043
:10012C00A02A000808B5034B1BB103490348AFF3E1
:10013C00008008BD0000000070000020A02A00080C
:10014C0080B500AF174B5B68164A9360154B1B6864
:10015C00144A53604FF40051134801F063FC0346FA
:10016C001A46104B1A600F4B9A680E4B5B689A42FA
:10017C0016D10C4B5A680B4B1B689A4210D1094B89
:10018C009A68084BDB689A420AD0064B9B68054A72
:10019C00D360044B9B68002B02D1024B01221A61E5
:1001AC0000BF80BD000000200010014080B500AFF2
:1001BC00174B5B68164A9360154B1B68144A5360C7
:1001CC004FF48041134801F02DFC03461A46104BA6
:1001DC001A600F4B9A680E4B5B689A4216D10C4B07
:1001EC005A680B4B1B689A4210D1094B9A68084B02
:1001FC00DB689A420AD0064B9B68054AD360044BD5
:10020C009B68002B02D1024B01221A6100BF80BDFA
:10021C00140000200010014080B500AF174B5B6844
:10022C00164A9360154B1B68144A53604FF40041F7
:10023C00134801F0F7FB03461A46104B1A600F4B9C
:10024C009A680E4B5B689A4216D10C4B5A680B4B52
:10025C001B689A4210D1094B9A68084BDB689A428A
:10026C000AD0064B9B68054AD360044B9B68002B55
:10027C0002D1024B01221A6100BF80BD2800002070
:10028C000010014080B400AF064B1B69012B04D158
:10029C00044B00221A61012300E000231846BD46DE
:1002AC0080BC70470000002080B400AF064B1B6977
:1002BC00012B04D1044B00221A61012300E000231E
:1002CC001846BD4680BC70471400002080B400AFB7
:1002DC00064B1B69012B04D1044B00221A6101232C
:1002EC0000E000231846BD4680BC70472800002063
:1002FC0080B500AFFFF724FFFFF758FFFFF78CFF27
:10030C0000BF80BD80B500AF3D4B1B68052B6CD882
:10031C0001A252F823F000BF4F0300087903000834
:10032C00A3030008CD030008F70300083D030008F1
:10033C00334B00221A60334B1B68184600F048FF01
:10034C005CE0002000F064F82F4B1B68184600F0AE
:10035C00D9F82E4B1B68012B49D1294B01221A606D
:10036C00284B1B68184600F033FF40E0012000F0DA
:10037C004FF8254B5B68184600F0C4F8234B1B68FC
:10038C00012B36D11E4B02221A601E4B1B681846DD
:10039C0000F01EFF2DE0022000F03AF81A4B9B688B
:1003AC00184600F0AFF8194B1B68012B23D1144BE6
:1003BC0003221A60134B1B68184600F009FF1AE061
:1003CC00032000F025F8104BDB68184600F09AF873
:1003DC000E4B1B68012B10D1094B00221A60094BE4
:1003EC001B68184600F0F4FE07E000BF06E000BFF3
:1003FC0004E000BF02E000BF00E000BF00BF80BD12
:10040C00580000203C00002090000020AC00002090
:10041C0080B582B000AF78607B68032B6AD801A2EC
:10042C0052F823F04104000871040008A1040008EC
:10043C00D104000800228021314801F00AFB01227E
:10044C004FF480712E4801F004FB01224FF400712F
:10045C002B4801F0FEFA01224FF48061284801F08C
:10046C00F8FA48E001228021254801F0F2FA002236
:10047C004FF48071224801F0ECFA01224FF4007124
:10048C001F4801F0E6FA01224FF480611C4801F08C
:10049C00E0FA30E001228021194801F0DAFA012259
:1004AC004FF48071164801F0D4FA00224FF4007119
:1004BC00134801F0CEFA01224FF48061104801F08C
:1004CC00C8FA18E0012280210D4801F0C2FA01227D
:1004DC004FF480710A4801F0BCFA01224FF400710C
:1004EC00074801F0B6FA00224FF48061044801F08D
:1004FC00B0FA00E000BF00BF0837BD4680BD00BFAA
:10050C000008014080B582B000AF78607B68092B91
:10051C0000F2808101A252F823F000BF51050008BF
:10052C0099050008E1050008290600087106000875
:10053C00B9060008010700084907000891070008E0
:10054C00D907000800220121B54801F082FA0022E7
:10055C000221B34801F07DFA00220421B04801F0D9
:10056C0078FA00220821AE4801F073FA002210211B
:10057C00AB4801F06EFA00222021A94801F069FA7B
:10058C0001224021A64801F064FA44E10122012134
:10059C00A34801F05EFA00220221A14801F059FAA9
:1005AC00002204219E4801F054FA012208219C48A3
:1005BC0001F04FFA01221021994801F04AFA012268
:1005CC002021974801F045FA01224021944801F07E
:1005DC0040FA20E100220121914801F03AFA002270
:1005EC0002218F4801F035FA012204218C4801F0D8
:1005FC0030FA002208218A4801F02BFA002210213F
:10060C00874801F026FA01222021854801F021FAC1
:10061C0000224021824801F01CFAFCE0002201215A
:10062C007F4801F016FA002202217D4801F011FAF0
:10063C00002204217A4801F00CFA002208217848A3
:10064C0001F007FA01221021754801F002FA01228B
:10065C002021734801F0FDF900224021704801F07F
:10066C00F8F9D8E0012201216D4801F0F2F90022DD
:10067C0002216B4801F0EDF900220421684801F0D9
:10068C00E8F901220821664801F0E3F90122102162
:10069C00634801F0DEF900222021614801F0D9F90C
:1006AC00002240215E4801F0D4F9B4E0002201217F
:1006BC005B4801F0CEF901220221594801F0C9F939
:1006CC0000220421564801F0C4F9002208215448A4
:1006DC0001F0BFF901221021514801F0BAF90022B2
:1006EC0020214F4801F0B5F9002240214C4801F07F
:1006FC00B0F990E000220121494801F0AAF9012249
:10070C000221474801F0A5F900220421444801F0D8
:10071C00A0F900220821424801F09BF90022102187
:10072C003F4801F096F9002220213D4801F091F953
:10073C00002240213A4801F08CF96CE000220121A2
:10074C00374801F086F900220221354801F081F981
:10075C0000220421324801F07CF9012208213048A2
:10076C0001F077F9012210212D4801F072F90122D4
:10077C0020212B4801F06DF901224021284801F07D
:10078C0068F948E000220121254801F062F90022B5
:10079C000221234801F05DF900220421204801F0D8
:1007AC0058F9002208211E4801F053F900221021AB
:1007BC001B4801F04EF900222021194801F049F99B
:1007CC0000224021164801F044F924E000220121C6
:1007DC00134801F03EF900220221114801F039F9C9
:1007EC00002204210E4801F034F9002208210C48A3
:1007FC0001F02FF901221021094801F02AF90022F9
:10080C002021074801F025F900224021044801F07D
:10081C0020F900E000BF00BF0837BD4680BD00BF17
:10082C00000C014080B483B000AF78607B68032B70
:10083C0049D07B68032B66DC7B68012B03D07B687B
:10084C00022B20D05FE0334B1B68334A82FB031230
:10085C009210DB17D31A314A13602E4B19682E4BAA
:10086C0083FB01239A10CB17D21A13469B00134417
:10087C005B00CA1A294B5A60284B00229A60274BFE
:10088C000222DA6040E0234B1B68234A82FB0312EE
:10089C009210DB17D31A214A13601E4B19681E4B9A
:1008AC0083FB01239A10CB17D21A13469B001344D7
:1008BC005B00CA1A194B5A60184B00229A60174BEE
:1008CC000322DA6020E0134B1B68134A82FB0312ED
:1008DC009210DB17D31A114A13600E4B19680E4B8A
:1008EC0083FB01239A10CB17D21A13469B00134497
:1008FC005B00CA1A094B5A60084B00229A60074BDE
:10090C000422DA6000E000BF00BF0C37BD4680BC9B
:10091C00704700BF8C000020676666669000002060
:10092C0080B500AF01227E21024801F092F800BF91
:10093C0080BD00BF0008014080B500AF934B1B6821
:10094C00013B042B00F2848101A252F823F000BF7A
:10095C008D090008410A0008E90A0008B90B0008D3
:10096C0071090008FFF7DCFF884B01221A60884BE5
:10097C001B68884A13604FF47A7000F00FFC70E12A
:10098C0000224221844801F064F8824B1A68834BA0
:10099C001B681344824A82FB03129210DB17D31A92
:1009AC00804A13607B4B1A687C4B1B68D1187C4BBC
:1009BC0083FB01239A10CB17D21A13469B001344C6
:1009CC005B00CA1A774B5A60724B1B68744A82FBE5
:1009DC0003129210DB17D31A724A93606D4B19688D
:1009EC006F4B83FB01239A10CB17D21A13469B0033
:1009FC0013445B00CA1A6B4BDA606B4B1B68012B00
:100A0C0040F028814FF47A7000F0C8FB614B1B68F2
:100A1C00013B604A13605F4B1B68002B00F31A818B
:100A2C005A4B02221A605D4B1B685A4A1360FFF73F
:100A3C0077FF0FE100222221574801F00AF8554BAD
:100A4C001B68574A82FB03129210DB17D31A554AC4
:100A5C001360504B1968524B83FB01239A10CB1730
:100A6C00D21A13469B0013445B00CA1A4D4B5A60B2
:100A7C00484B1B684A4A82FB03129210DB17D31AAD
:100A8C00484A9360434B1968454B83FB01239A10EA
:100A9C00CB17D21A13469B0013445B00CA1A414B66
:100AAC00DA60414B1B68012B40F0D6804FF47A7012
:100ABC0000F074FB374B1B68013B364A1360354B17
:100ACC001B68002B00F3C880304B03221A60304B9C
:100ADC001B68304A1360FFF723FFBDE0002218218A
:100AEC002D4800F0B6FF2B4B1B682D4A82FB0312DE
:100AFC009210DB17D31A2B4A1360264B1968284B1C
:100B0C0083FB01239A10CB17D21A13469B00134474
:100B1C005B00CA1A234B5A601E4B1A681F4B1B688A
:100B2C0013441F4A82FB03129210DB17D31A1D4A7F
:100B3C009360184B1A68194B1B68D118184B83FB20
:100B4C0001239A10CB17D21A13469B0013445B0057
:100B5C00CA1A144BDA60144B1B68012B7ED14FF46C
:100B6C007A7000F01BFB0B4B1B68013B094A1360AE
:100B7C00084B1B68002B71DC044B04221A60074BDA
:100B8C001B68044A1360FFF7CBFE67E040000020AF
:100B9C004C00002088000020000801404800002084
:100BAC006766666690000020A400002000222821C1
:100BBC002D4800F04EFF2D4B1B682D4A82FB031273
:100BCC009210DB17D31A2B4A1360284B1968284B49
:100BDC0083FB01239A10CB17D21A13469B001344A4
:100BEC005B00CA1A234B5A60204B1B68204A82FBBD
:100BFC0003129210DB17D31A1E4A93601B4B196811
:100C0C001B4B83FB01239A10CB17D21A13469B0064
:100C1C0013445B00CA1A174BDA60174B1B68012B85
:100C2C001ED14FF47A7000F0B9FA104B1B68013BDF
:100C3C000E4A13600D4B1B68002B11DC0F4B01226D
:100C4C001A600F4B1B68094A1360FFF769FE07E037
:100C5C0000BF06E000BF04E000BF02E000BF00E000
:100C6C0000BF00BF80BD00BF00080140880000200D
:100C7C006766666690000020A400002040000020FB
:100C8C004C00002080B582B000AF78602C4B1B6804
:100C9C00013B042B48D801A252F823F0ED0C0008BC
:100CAC00050D00081D0D0008350D0008BD0C0008D1
:100CBC00FFF736FE7B68012B02D1214A7B6813605B
:100CCC007B68032B02D11E4B03221A607B68022B1C
:100CDC0002D11B4B02221A60FA2000F093FA2AE090
:100CEC00184B1B68012B21D1FA2000F08BFA122132
:100CFC00154800F0C6FE19E0124B1B68012B17D1EA
:100D0C00FA2000F07FFA24210F4800F0BAFE0FE021
:100D1C000C4B1B68012B0DD1FA2000F073FA482103
:100D2C00094800F0AEFE05E000BF04E000BF02E0A1
:100D3C0000BF00E000BF00BF0837BD4680BD00BF4C
:100D4C0054000020B40000200008014080B500AF22
:100D5C007B4B1B68052B00F2E78001A252F823F0B5
:100D6C009B0D0008F30D00085F0E0008CB0E000869
:100D7C00350F0008850D0008714B00221A60704B6E
:100D8C001B681846FFF74EFDFFF7BCFAD5E06D4B1C
:100D9C001A686D4B1B681A446C4B1B689A4208D03E
:100DAC006A4B05221A60674B03221A60664B0222BB
:100DBC001A60FFF7C1FD624B1B681846FFF732FD46
:100DCC00FFF7A0FAFFF75EFA0346002B00F0AE80A7
:100DDC005B4B01221A605D4B1B685D4A13605D4BD7
:100DEC0005221A60A2E00120FFF74CFF544B1B6850
:100DFC001846FFF717FDFFF785FAFFF743FA03468E
:100E0C00002B0AD04E4B02221A604F4B1B68504AE3
:100E1C001360504B05221A608AE0FFF745FA03462F
:100E2C00002B0CD04A4B1B680133494A1360484BCA
:100E3C001B68632B7CDD464B01221A6078E0FFF7C0
:100E4C0045FA0346002B73D0414B1B683F4A136095
:100E5C006EE00220FFF716FF394B1B681846FFF7B0
:100E6C00E1FCFFF74FFAFFF70DFA0346002B0AD00F
:100E7C00334B03221A60334B1B68354A1360354BD6
:100E8C0005221A6056E0FFF70FFA0346002B0CD030
:100E9C002F4B1B6801332E4A13602D4B1B68632BA1
:100EAC0048DD2B4B01221A6044E0FFF70FFA034692
:100EBC00002B3FD0264B1B68234A13603AE00320DB
:100ECC00FFF7E0FE1E4B1B681846FFF7ABFCFFF765
:100EDC0019FAFFF7D7F90346002B09D0184B00225B
:100EEC001A601D4B05221A601C4B05221A6023E068
:100EFC00FFF7DAF90346002B0CD0154B1B680133B6
:100F0C00134A1360124B1B68632B15DD104B012227
:100F1C001A6011E0FFF7DAF90346002B0CD00C4BEA
:100F2C001B68084A136007E000BF06E000BF04E03E
:100F3C0000BF02E000BF00E000BF00BF80BD00BFEB
:100F4C00500000204C0000204800002044000020ED
:100F5C008C0000205400002040000020580000208D
:100F6C0080B500AF00F074FA00F00CF800F092F8C5
:100F7C0000F044F8024801F0C9F9FFF7E7FEFCE77E
:100F8C00B800002080B590B000AF07F118032822FC
:100F9C000021184601F076FD3B1D00221A605A60B4
:100FAC009A60DA601A610223BB610123BB621023D1
:100FBC00FB6200237B6307F11803184600F07AFDEF
:100FCC000346002B01D000F0E3F80F237B600023D5
:100FDC00BB600023FB6000233B6100237B613B1D56
:100FEC000021184600F0E6FF0346002B01D000F06C
:100FFC00CFF800BF4037BD4680BD000080B586B03D
:10100C0000AF07F1080300221A605A609A60DA6098
:10101C003B4600221A605A601D4B4FF080421A600A
:10102C001B4B41F63F725A60194B00229A60184BC9
:10103C000922DA60164B00221A61154B00229A61C4
:10104C00134801F013F90346002B01D000F0A0F86F
:10105C004FF48053BB6007F1080319460C4801F0AC
:10106C00A9FA0346002B01D000F092F800233B6054
:10107C0000237B603B461946054801F075FC03468E
:10108C00002B01D000F084F800BF1837BD4680BD9E
:10109C00B800002080B588B000AF07F11003002223
:1010AC001A605A609A60DA602F4B9B692E4A43F0A3
:1010BC00100393612C4B9B6903F01003FB60FB68DE
:1010CC00294B9B69284A43F004039361264B9B6987
:1010DC0003F00403BB60BB68234B9B69224A43F0BB
:1010EC0008039361204B9B6903F008037B607B68CA
:1010FC00002240F2FE711D4800F0ABFC002248F2C9
:10110C007F011B4800F0A5FC4FF460433B610023BA
:10111C007B610123BB6107F110031946154800F0F0
:10112C0007FB40F2FE733B6101237B610023BB6133
:10113C000223FB6107F1100319460C4800F0F8FA82
:10114C0048F27F033B6101237B610023BB610223D7
:10115C00FB6107F110031946054800F0E9FA00BFDE
:10116C002037BD4680BD00BF001002400008014082
:10117C00000C01400010014080B582B000AF7860D7
:10118C0000F0A8F8FFF7B4F800BF0837BD4680BDE3
:10119C0080B400AF72B600BFFEE7000080B483B02D
:1011AC0000AF7860074B1B687A6892FBF3F3064A32
:1011BC001360064B00221A6000BF0C37BD4680BC82
:1011CC00704700BF5C000020A0000020A40000209D
:1011DC0080B483B000AF7860074B1B687A6892FBD1
:1011EC00F3F3064A1360064B00221A6000BF0C375B
:1011FC00BD4680BC704700BF5C000020A8000020EA
:10120C00AC00002080B483B000AF7860074B1B6843
:10121C007A6892FBF3F3064A1360064B00221A60BD
:10122C0000BF0C37BD4680BC704700BF5C0000207F
:10123C00B0000020B400002080B400AF094B1B6844
:10124C00002B0BDD074B1B68013B064A1360054B5B
:10125C001B68002B02DC044B01221A6000BFBD4648
:10126C0080BC7047A0000020A400002080B400AF18
:10127C00094B1B68002B0BDD074B1B68013B064A17
:10128C001360054B1B68002B02DC044B01221A6017
:10129C0000BFBD4680BC7047A8000020AC000020F9
:1012AC0080B400AF094B1B68002B0BDD074B1B6890
:1012BC00013B064A1360054B1B68002B02DC044BF8
:1012CC0001221A6000BFBD4680BC7047B0000020F0
:1012DC00B400002080B500AFFFF7AEFFFFF7C6FFEC
:1012EC00FFF7DEFF00BF80BD80B485B000AF154BAB
:1012FC009B69144A43F001039361124B9B6903F001
:10130C000103BB60BB680F4BDB690E4A43F0805393
:10131C00D3610C4BDB6903F080537B607B680A4B19
:10132C005B68FB60FB6823F0E063FB60FB6843F0E9
:10133C008063FB60044AFB68536000BF1437BD46F2
:10134C0080BC7047001002400000014080B584B0A2
:10135C0000AF78607B681B68B3F1804F13D10C4BE6
:10136C00DB690B4A43F00103D361094BDB6903F0E2
:10137C000103FB60FB68002200211C2000F0A1F996
:10138C001C2000F0BAF900BF1037BD4680BD00BF6D
:10139C000010024080B400AFFEE780B400AFFEE75F
:1013AC0080B400AFFEE780B400AFFEE780B400AFBE
:1013BC00FEE780B400AF00BFBD4680BC704780B470
:1013CC0000AF00BFBD4680BC704780B400AF00BF0B
:1013DC00BD4680BC704780B500AF00F07FF800BF01
:1013EC0080BD000080B500AF024800F0DBFF00BFFD
:1013FC0080BD00BFB800002080B400AF00BFBD4668
:10140C0080BC7047FFF7F8FF0B480C490C4A0023CF
:10141C0002E0D458C4500433C4188C42F9D3094A9E
:10142C00094C002301E013600432A242FBD301F00B
:10143C0005FBFFF795FD7047000000206C000020B5
:10144C00E42A00086C00002004010020FEE70000E4
:10145C0080B500AF084B1B68074A43F010031360BC
:10146C00032000F023F90F2000F008F8FFF73CFFF1
:10147C000023184680BD00BF0020024080B582B01A
:10148C0000AF7860124B1A68124B1B7819464FF458
:10149C007A73B3FBF1F3B2FBF3F3184600F03BF9AC
:1014AC000346002B01D001230EE07B680F2B0AD8DA
:1014BC00002279684FF0FF3000F003F9064A7B6890
:1014CC001360002300E0012318460837BD4680BD99
:1014DC0060000020680000206400002080B400AF91
:1014EC00054B1B781A46054B1B681344034A1360C3
:1014FC0000BFBD4680BC7047680000200001002082
:10150C0080B400AF024B1B681846BD4680BC7047C8
:10151C000001002080B485B000AF78607B6803F0D8
:10152C000703FB600C4BDB68BB60BA684FF6FF032C
:10153C001340BB60FB681A02BB68134343F0BF63E4
:10154C0043F40033BB60044ABB68D36000BF14375C
:10155C00BD4680BC704700BF00ED00E080B400AF1A
:10156C00044BDB681B0A03F007031846BD4680BC1E
:10157C00704700BF00ED00E080B483B000AF0346BD
:10158C00FB7197F90730002B0BDBFB7903F01F0283
:10159C00064997F907305B09012000FA02F241F87D
:1015AC00232000BF0C37BD4680BC704700E100E033
:1015BC0080B483B000AF03463960FB7197F90730F4
:1015CC00002B0ADB3B68DAB20C4997F907301201A1
:1015DC00D2B20B4483F800230AE03B68DAB2084924
:1015EC00FB7903F00F03043B1201D2B20B441A76C1
:1015FC0000BF0C37BD4680BC704700BF00E100E067
:10160C0000ED00E080B489B000AFF860B9607A609A
:10161C00FB6803F00703FB61FB69C3F10703042BB1
:10162C0028BF0423BB61FB690433062B02D9FB6979
:10163C00033B00E000237B614FF0FF32BB6902FAF1
:10164C0003F3DA43BB681A407B699A404FF0FF31D1
:10165C007B6901FA03F3D9437B680B4013431846AB
:10166C002437BD4680BC704780B582B000AF78602F
:10167C007B68013BB3F1807F01D301230FE00A4A61
:10168C007B68013B53600F214FF0FF30FFF790FF59
:10169C00054B00229A60044B07221A60002318465F
:1016AC000837BD4680BD00BF10E000E080B582B0B9
:1016BC0000AF78607868FFF72DFF00BF0837BD4694
:1016CC0080BD80B586B000AF0346B9607A60FB730D
:1016DC0000237B61FFF742FF78617A68B96878690B
:1016EC00FFF790FF024697F90F3011461846FFF7A7
:1016FC005FFF00BF1837BD4680BD80B582B000AF1C
:10170C000346FB7197F907301846FFF735FF00BF0A
:10171C000837BD4680BD80B582B000AF7860786870
:10172C00FFF7A2FF034618460837BD4680BD0000F0
:10173C0080B48BB000AF7860396000237B620023EB
:10174C003B6248E101227B6A02FA03F3FB613B68CE
:10175C001B68FA691340BB61BA69FB699A4240F095
:10176C0037813B685B68A34A93425ED0A14A93429F
:10177C0075D8A14A934258D09F4A93426FD89F4A3A
:10178C00934252D09D4A934269D89D4A93424CD081
:10179C009B4A934263D89B4A934246D0994A9342C0
:1017AC005DD8122B2AD8122B59D801A252F823F04B
:1017BC0037180008111800082318000865180008CD
:1017CC006B1800086B1800086B1800086B180008E1
:1017DC006B1800086B1800086B1800086B180008D1
:1017EC006B1800086B1800086B1800086B180008C1
:1017FC006B180008191800082D180008824A93422B
:10180C0013D02CE03B68DB683B6229E03B68DB686B
:10181C0004333B6224E03B68DB6808333B621FE027
:10182C003B68DB680C333B621AE03B689B68002B1F
:10183C0002D104233B6213E03B689B68012B05D16A
:10184C0008233B627B68FA691A6109E008233B6252
:10185C007B68FA695A6103E000233B6200E000BF39
:10186C00BB69FF2B01D87B6801E07B6804337B618B
:10187C00BB69FF2B02D87B6A9B0002E07B6A083BAA
:10188C009B003B617B691A680F213B6901FA03F3EA
:10189C00DB431A40396A3B6901FA03F31A437B694B
:1018AC001A603B685B6803F08053002B00F090805B
:1018BC00564B9B69554A43F001039361534B9B690B
:1018CC0003F00103BB60BB68514A7B6A9B0802337F
:1018DC0052F82330FB607B6A03F003039B000F225A
:1018EC0002FA03F3DB43FA681340FB607B68494A56
:1018FC0093420DD07B68484A934207D07B68474A95
:10190C00934201D1022304E0032302E0012300E00F
:10191C0000237A6A02F0030292009340FA681343A0
:10192C00FB603B497B6A9B080233FA6841F8232031
:10193C003B685B6803F48013002B06D0384B9A6825
:10194C003749BB6913438B6006E0354B9A68BB691A
:10195C00DB43334913408B603B685B6803F4001333
:10196C00002B06D02E4BDA682D49BB691343CB6094
:10197C0006E02B4BDA68BB69DB4329491340CB608B
:10198C003B685B6803F40033002B06D0244B5A6889
:10199C002349BB6913434B6006E0214B5A68BB6972
:1019AC00DB431F4913404B603B685B6803F4803397
:1019BC00002B06D01A4B1A681949BB6913430B60EC
:1019CC0006E0174B1A68BB69DB43154913400B60E3
:1019DC007B6A01337B623B681A687B6A22FA03F3E9
:1019EC00002B7FF4AFAE00BF00BF2C37BD4680BCD0
:1019FC00704700BF000032100000311000002210B0
:101A0C000000211000001210000011100010024004
:101A1C000000014000080140000C01400010014092
:101A2C000004014080B485B000AF78600B467B8029
:101A3C007B689A687B881340002B02D00123FB73D0
:101A4C0001E00023FB73FB7B18461437BD4680BCBA
:101A5C00704780B483B000AF78600B467B80134630
:101A6C007B707B78002B03D07A887B681A6103E04B
:101A7C007B881A047B681A6100BF0C37BD4680BC9A
:101A8C00704780B485B000AF78600B467B807B6874
:101A9C00DB68FB607A88FB6813401A04FB68D94347
:101AAC007B880B401A437B681A6100BF1437BD4614
:101ABC0080BC704780B586B000AF78607B68002B27
:101ACC0001D101236CE27B681B6803F00103002B3E
:101ADC0000F08780924B5B6803F00C03042B0CD056
:101AEC008F4B5B6803F00C03082B12D18C4B5B689B
:101AFC0003F48033B3F5803F0BD1894B1B6803F49F
:101B0C000033002B6CD07B685B68002B68D1012301
:101B1C0046E27B685B68B3F5803F06D1804B1B685F
:101B2C007F4A43F4803313602EE07B685B68002BA4
:101B3C000CD17B4B1B687A4A23F480331360784BAF
:101B4C001B68774A23F4802313601DE07B685B6875
:101B5C00B3F5A02F0CD1724B1B68714A43F4802350
:101B6C0013606F4B1B686E4A43F4803313600BE0B9
:101B7C006B4B1B686A4A23F480331360684B1B68F9
:101B8C00674A23F4802313607B685B68002B13D0B7
:101B9C00FFF7B6FC386108E0FFF7B2FC02463B6980
:101BAC00D31A642B01D90323FAE15D4B1B6803F4B0
:101BBC000033002BF0D014E0FFF7A2FC386108E0F2
:101BCC00FFF79EFC02463B69D31A642B01D9032311
:101BDC00E6E1534B1B6803F40033002BF0D100E01B
:101BEC0000BF7B681B6803F00203002B63D04C4BD7
:101BFC005B6803F00C03002B0BD0494B5B6803F0C4
:101C0C000C03082B1CD1464B5B6803F48033002B70
:101C1C0016D1434B1B6803F00203002B05D07B68E5
:101C2C001B69012B01D00123BAE13D4B1B6823F04A
:101C3C00F8027B685B69DB00394913430B603AE0BF
:101C4C007B681B69002B20D0364B01221A60FFF7F2
:101C5C0057FC386108E0FFF753FC02463B69D31A86
:101C6C00022B01D903239BE12D4B1B6803F00203CC
:101C7C00002BF0D02A4B1B6823F0F8027B685B69C1
:101C8C00DB00274913430B6015E0264B00221A603A
:101C9C00FFF736FC386108E0FFF732FC02463B697F
:101CAC00D31A022B01D903237AE11D4B1B6803F0D5
:101CBC000203002BF0D17B681B6803F00803002B98
:101CCC003AD07B689B69002B19D0174B01221A6004
:101CDC00FFF716FC386108E0FFF712FC02463B697F
:101CEC00D31A022B01D903235AE10D4B5B6A03F083
:101CFC000203002BF0D0012000F09AFA1CE00A4BF2
:101D0C0000221A60FFF7FCFB38610FE0FFF7F8FBCD
:101D1C0002463B69D31A022B08D9032340E100BFCA
:101D2C000010024000004242800442429E4B5B6A1B
:101D3C0003F00203002BE9D17B681B6803F004035A
:101D4C00002B00F0A6800023FB75974BDB6903F09A
:101D5C008053002B0DD1944BDB69934A43F0805395
:101D6C00D361914BDB6903F08053BB60BB680123EB
:101D7C00FB758E4B1B6803F48073002B18D18B4BB7
:101D8C001B688A4A43F480731360FFF7B9FB386110
:101D9C0008E0FFF7B5FB02463B69D31A642B01D967
:101DAC000323FDE0814B1B6803F48073002BF0D000
:101DBC007B68DB68012B06D17B4B1B6A7A4A43F0AC
:101DCC00010313622DE07B68DB68002B0CD1764B92
:101DDC001B6A754A23F001031362734B1B6A724A28
:101DEC0023F0040313621CE07B68DB68052B0CD129
:101DFC006D4B1B6A6C4A43F0040313626A4B1B6AFB
:101E0C00694A43F0010313620BE0674B1B6A664A95
:101E1C0023F001031362644B1B6A634A23F004032F
:101E2C0013627B68DB68002B15D0FFF769FB386108
:101E3C000AE0FFF765FB02463B69D31A41F2883290
:101E4C00934201D90323ABE0574B1B6A03F0020307
:101E5C00002BEED014E0FFF753FB38610AE0FFF7DC
:101E6C004FFB02463B69D31A41F28832934201D9A7
:101E7C00032395E04C4B1B6A03F00203002BEED1BD
:101E8C00FB7D012B05D1484BDB69474A23F080537E
:101E9C00D3617B68DB69002B00F08180424B5B686F
:101EAC0003F00C03082B61D07B68DB69022B46D155
:101EBC003F4B00221A60FFF723FB386108E0FFF765
:101ECC001FFB02463B69D31A022B01D9032367E09F
:101EDC00354B1B6803F00073002BF0D17B681B6A39
:101EEC00B3F5803F08D1304B5B6823F400327B683C
:101EFC009B682D4913434B602B4B5B6823F4741286
:101F0C007B68196A7B685B6A0B43274913434B60F8
:101F1C00274B01221A60FFF7F3FA386108E0FFF74C
:101F2C00EFFA02463B69D31A022B01D9032337E09F
:101F3C001D4B1B6803F00073002BF0D02FE01C4BE3
:101F4C0000221A60FFF7DCFA386108E0FFF7D8FAD4
:101F5C0002463B69D31A022B01D9032320E0124B12
:101F6C001B6803F00073002BF0D118E07B68DB6971
:101F7C00012B01D1012313E00B4B5B68FB60FB6869
:101F8C0003F480327B681B6A9A4206D1FB6803F427
:101F9C0070127B685B6A9A4201D0012300E0002337
:101FAC0018461837BD4680BD001002400070004036
:101FBC006000424280B584B000AF786039607B68C5
:101FCC00002B01D10123D0E06A4B1B6803F00703FF
:101FDC003A689A4210D9674B1B6823F0070265498F
:101FEC003B6813430B60634B1B6803F007033A68B1
:101FFC009A4201D00123B8E07B681B6803F002030E
:10200C00002B20D07B681B6803F00403002B05D049
:10201C00594B5B68584A43F4E06353607B681B6818
:10202C0003F00803002B05D0534B5B68524A43F472
:10203C0060535360504B5B6823F0F0027B689B68E5
:10204C004D4913434B607B681B6803F00103002B65
:10205C0040D07B685B68012B07D1474B1B6803F4AE
:10206C000033002B15D101237FE07B685B68022BCA
:10207C0007D1414B1B6803F00073002B09D10123DE
:10208C0073E03D4B1B6803F00203002B01D10123CD
:10209C006BE0394B5B6823F003027B685B68364965
:1020AC0013434B60FFF72CFAF8600AE0FFF728FAAD
:1020BC000246FB68D31A41F28832934201D90323BA
:1020CC0053E02D4B5B6803F00C027B685B689B0054
:1020DC009A42EBD1274B1B6803F007033A689A42EC
:1020EC0010D2244B1B6823F0070222493B68134390
:1020FC000B60204B1B6803F007033A689A4201D02F
:10210C00012332E07B681B6803F00403002B08D02A
:10211C00194B5B6823F4E0627B68DB681649134358
:10212C004B607B681B6803F00803002B09D0124B33
:10213C005B6823F460527B681B69DB000E49134318
:10214C004B6000F021F802460B4B5B681B0903F057
:10215C000F030A49CB5C22FA03F3094A1360094BBB
:10216C001B681846FFF78AF9002318461037BD463E
:10217C0080BD00BF0020024000100240B82A0008B9
:10218C00600000206400002080B487B000AF002302
:10219C00FB600023BB6000237B6100237B6000237A
:1021AC003B611E4B5B68FB60FB6803F00C03042B6C
:1021BC0002D0082B03D027E0194B3B6127E0FB68CA
:1021CC009B0C03F00F03174AD35C7B60FB6803F492
:1021DC008033002B10D0114B5B685B0C03F00103B8
:1021EC00114AD35CBB607B680D4A02FB03F2BB68EF
:1021FC00B2FBF3F37B6104E07B680C4A02FB03F354
:10220C007B617B693B6102E0054B3B6100BF3B6935
:10221C0018461C37BD4680BC704700BF00100240FA
:10222C0000127A00C82A0008D82A000800093D00CC
:10223C0080B485B000AF78600A4B1B680A4AA2FBD9
:10224C0003235B0A7A6802FB03F3FB6000BFFB68A5
:10225C005A1EFA60002BF9D100BF00BF1437BD46DF
:10226C0080BC704760000020D34D621080B582B0F6
:10227C0000AF78607B68002B01D1012341E07B68C3
:10228C0093F83D30DBB2002B06D17B68002283F83B
:10229C003C207868FFF75AF87B68022283F83D20CF
:1022AC007B681A687B6804331946104600F06EFA96
:1022BC007B68012283F846207B68012283F83E204C
:1022CC007B68012283F83F207B68012283F8402041
:1022DC007B68012283F841207B68012283F842202D
:1022EC007B68012283F843207B68012283F8442019
:1022FC007B68012283F845207B68012283F83D200E
:10230C00002318460837BD4680BD000080B485B058
:10231C0000AF78607B6893F83D30DBB2012B01D0C5
:10232C00012335E07B68022283F83D207B681B6823
:10233C00DA687B681B6842F00102DA607B681B6814
:10234C00164A934209D07B681B68B3F1804F04D0C6
:10235C007B681B68124A934211D17B681B689B688F
:10236C0003F00703FB60FB68062B10D07B681B682F
:10237C001A687B681B6842F001021A6007E07B68F0
:10238C001B681A687B681B6842F001021A60002304
:10239C0018461437BD4680BC704700BF002C014066
:1023AC000004004080B582B000AF78607B681B6889
:1023BC001B6903F00203022B22D17B681B68DB68CC
:1023CC0003F00203022B1BD17B681B686FF0020227
:1023DC001A617B6801221A777B681B689B6903F082
:1023EC000303002B03D0786800F0B4F905E078689B
:1023FC0000F0A7F9786800F0B6F97B6800221A772C
:10240C007B681B681B6903F00403042B22D17B68D7
:10241C001B68DB6803F00403042B1BD17B681B686F
:10242C006FF004021A617B6802221A777B681B68C2
:10243C009B6903F44073002B03D0786800F08AF991
:10244C0005E0786800F07DF9786800F08CF97B681D
:10245C0000221A777B681B681B6903F00803082BA2
:10246C0022D17B681B68DB6803F00803082B1BD1A7
:10247C007B681B686FF008021A617B6804221A776C
:10248C007B681B68DB6903F00303002B03D07868BF
:10249C0000F060F905E0786800F053F9786800F016
:1024AC0062F97B6800221A777B681B681B6903F052
:1024BC001003102B22D17B681B68DB6803F0100320
:1024CC00102B1BD17B681B686FF010021A617B68A4
:1024DC0008221A777B681B68DB6903F44073002BB6
:1024EC0003D0786800F036F905E0786800F029F937
:1024FC00786800F038F97B6800221A777B681B68D3
:10250C001B6903F00103012B0ED17B681B68DB6890
:10251C0003F00103012B07D17B681B686FF00102EC
:10252C001A617868FEF728FE7B681B681B6903F04C
:10253C008003802B0ED17B681B68DB6803F0800363
:10254C00802B07D17B681B686FF080021A6178685A
:10255C0000F06BFA7B681B681B6903F04003402B8F
:10256C000ED17B681B68DB6803F04003402B07D15E
:10257C007B681B686FF040021A61786800F0FCF809
:10258C007B681B681B6903F02003202B0ED17B6832
:10259C001B68DB6803F02003202B07D17B681B68CA
:1025AC006FF020021A61786800F036FA00BF083725
:1025BC00BD4680BD80B584B000AF78603960002323
:1025CC00FB737B6893F83C30012B01D10223B4E000
:1025DC007B68012283F83C207B68022283F83D2033
:1025EC007B681B689B68BB60BB6823F07703BB6090
:1025FC00BB6823F47F43BB607B681B68BA689A6036
:10260C003B681B68B3F5005F3ED0B3F5005F00F28A
:10261C008780B3F5805F00F08680B3F5805F7FD84C
:10262C00702B1AD0702B7BD8602B50D0602B77D8A6
:10263C00502B3CD0502B73D8402B58D0402B6FD8FC
:10264C00302B64D0302B6BD8202B60D0202B67D84C
:10265C00002B5CD0102B5AD062E07B6818683B686A
:10266C0099683B685A683B68DB6800F05EF97B68E8
:10267C001B689B68BB60BB6843F07703BB607B68DF
:10268C001B68BA689A604FE07B6818683B68996869
:10269C003B685A683B68DB6800F047F97B681B684D
:1026AC009A687B681B6842F480429A603CE07B68C5
:1026BC0018683B6859683B68DB681A4600F0BEF83E
:1026CC007B681B685021184600F015F92CE07B68DC
:1026DC0018683B6859683B68DB681A4600F0DCF800
:1026EC007B681B686021184600F005F91CE07B68CC
:1026FC0018683B6859683B68DB681A4600F09EF81E
:10270C007B681B684021184600F0F5F80CE07B68EC
:10271C001A683B681B681946104600F0ECF803E099
:10272C000123FB7300E000BF7B68012283F83D208E
:10273C007B68002283F83C20FB7B18461037BD4693
:10274C0080BD80B483B000AF786000BF0C37BD464D
:10275C0080BC704780B483B000AF786000BF0C378A
:10276C00BD4680BC704780B483B000AF786000BFBA
:10277C000C37BD4680BC704780B483B000AF786026
:10278C0000BF0C37BD4680BC7047000080B485B0DC
:10279C0000AF786039607B681B68FB607B68254AFA
:1027AC00934207D07B68B3F1804F03D07B68224AF9
:1027BC00934208D1FB6823F07003FB603B685B68B5
:1027CC00FA681343FB607B681A4A934207D07B6814
:1027DC00B3F1804F03D07B68174A934208D1FB6852
:1027EC0023F44073FB603B68DB68FA681343FB60BF
:1027FC00FB6823F080023B685B691343FB607B68DA
:10280C00FA681A603B689A687B68DA623B681A68F7
:10281C007B689A627B68074A934203D13B681A69CA
:10282C007B681A637B6801225A6100BF1437BD466E
:10283C0080BC7047002C01400004004080B487B07D
:10284C0000AFF860B9607A60FB681B6A7B61FB685B
:10285C001B6A23F00102FB681A62FB689B693B61EF
:10286C003B6923F0F0033B617B681B013A6913431E
:10287C003B617B6923F00A037B617A69BB68134374
:10288C007B61FB683A699A61FB687A691A6200BFDE
:10289C001C37BD4680BC704780B487B000AFF86071
:1028AC00B9607A60FB681B6A7B61FB681B6A23F06A
:1028BC001002FB681A62FB689B693B613B6923F45D
:1028CC0070433B617B681B033A6913433B617B6933
:1028DC0023F0A0037B61BB681B017A6913437B6106
:1028EC00FB683A699A61FB687A691A6200BF1C3707
:1028FC00BD4680BC704780B485B000AF786039604D
:10290C007B689B68FB60FB6823F07003FB603A6894
:10291C00FB68134343F00703FB607B68FA689A601B
:10292C0000BF1437BD4680BC704780B487B000AF81
:10293C00F860B9607A603B60FB689B687B617B697F
:10294C0023F47F437B613B681A027B681A43BB68A4
:10295C0013437A6913437B61FB687A699A6000BF01
:10296C001C37BD4680BC704780B485B000AF786022
:10297C0039607B6893F83C30012B01D1022341E094
:10298C007B68012283F83C207B68022283F83D207F
:10299C007B681B685B68FB607B681B689B68BB6023
:1029AC00FB6823F07003FB603B681B68FA681343F9
:1029BC00FB607B681B68FA685A607B681B68144A6A
:1029CC00934209D07B681B68B3F1804F04D07B68BD
:1029DC001B68104A93420CD1BB6823F08003BB6088
:1029EC003B685B68BA681343BB607B681B68BA685A
:1029FC009A607B68012283F83D207B68002283F873
:102A0C003C20002318461437BD4680BC704700BFDD
:102A1C00002C01400004004080B483B000AF78600B
:102A2C0000BF0C37BD4680BC704780B483B000AF8C
:102A3C00786000BF0C37BD4680BC704770B500266F
:102A4C000C4D0D4C641BA410A64209D100F022F8C9
:102A5C0000260A4D0A4C641BA410A64205D170BD79
:102A6C0055F8043B98470136EEE755F8043B984778
:102A7C000136F2E7DC2A0008DC2A0008DC2A000810
:102A8C00E02A000803460244934200D1704703F841
:102A9C00011BF9E7F8B500BFF8BC08BC9E467047AF
:0C2AAC00F8B500BFF8BC08BC9E4670479F
:102AB80000000000000000000102030406070809E6
:102AC80002030405060708090A0B0C0D0E0F101067
:042AD80001020000F7
:042ADC0031010008BC
:042AE0000D010008DC
:102AE40001000000010000000100000001000000DE
:102AF40000000000010000000100000001000000CF
:102B040001000000000000000100000001000000BE
:102B1400010000000100000000000000FA000000B5
:102B24000500000005000000020000000300000092
:102B34000500000005000000050000000A00000078
:0C2B44000024F40010000000010000005C
:0400000508001411CA
:00000001FF
